:03000000020800F3
:0C080000787FE4F6D8FD758116020847E9
:0609CB00011400011500FB
:0409D200E4F58022A6
:100990008B0F12088CAF11120919D284AD10AF0F52
:0609A00012088CC2842243
:10095D00AE05AC07E5142CFFE5152EFDEF2BFBE5E1
:0C096D00152E250BF510850C11020990C9
:0F09A6008B1612088CAF16120919D284C2842244
:0B09B500E5142FFFE5152DFD0209A63B
:10088C00C3EF9514FEC3ED9515FC8F148D15EE700A
:10089C0003EC603AD3EE648094804007B280B2805F
:1008AC001E800DC3EE648094805005B281B2810E1F
:1008BC00D3EC648094804007B282B2821C80CFC398
:0E08CC00EC6480948050C7B283B2830C80C06D
:0108DA0022FB
:1008DB00C3EF9514FEC3ED9515FC8F148D158EF09B
:1008EB0012093BAFF0EF600BEE8CF012093BAFF04F
:0E08FB00EF701AC3EC6480F8EE648098500F22
:0F090900EC8EF012093BF512EC8512F084F51319
:0109180022BC
:0B09C000E5142FFFE5152DFD02088C4B
:10091900EF14600F14601114601324037013C2855F
:10092900C28622D285C28622C285D28622D285D2A9
:02093900862214
:100979001209D2750B0A7B1E7D0A7F0A12095DE4F2
:07098900FDFF12088C80FE47
:10080C00020979E493A3F8E493A34003F68001F280
:10081C0008DFF48029E493A3F85407240CC8C333ED
:10082C00C4540F4420C8834004F456800146F6DFBC
:10083C00E4800B01020408102040809009CBE47E78
:10084C00019360BCA3FF543F30E509541FFEE493B1
:10085C00A360010ECF54C025E060A840B8E493A378
:10086C00FAE493A3F8E493A3C8C582C8CAC583CAA3
:10087C00F0A3C8C582C8CAC583CADFE9DEE780BE5B
:0109D1000025
:10093B00C2D530F707B2D563F0FF05F030E70CB244
:10094B00D5F4048463F0FF05F080018430D502F404
:02095B00042274
:00000001FF
